{
  "contractName": "CustomContract",
  "abi": [
    {
      "inputs": [],
      "stateMutability": "nonpayable",
      "type": "constructor"
    },
    {
      "inputs": [
        {
          "internalType": "uint256",
          "name": "",
          "type": "uint256"
        }
      ],
      "name": "toDoList",
      "outputs": [
        {
          "internalType": "string",
          "name": "",
          "type": "string"
        }
      ],
      "stateMutability": "view",
      "type": "function",
      "constant": true
    },
    {
      "inputs": [
        {
          "internalType": "string",
          "name": "todo",
          "type": "string"
        }
      ],
      "name": "addTodo",
      "outputs": [],
      "stateMutability": "payable",
      "type": "function",
      "payable": true
    },
    {
      "inputs": [],
      "name": "getAllTodos",
      "outputs": [
        {
          "internalType": "string",
          "name": "",
          "type": "string"
        }
      ],
      "stateMutability": "view",
      "type": "function",
      "constant": true
    },
    {
      "inputs": [
        {
          "internalType": "uint256",
          "name": "index",
          "type": "uint256"
        }
      ],
      "name": "completeTodo",
      "outputs": [],
      "stateMutability": "payable",
      "type": "function",
      "payable": true
    }
  ],
  "bytecode": "0x608060405234801561001057600080fd5b50611067806100206000396000f3fe60806040526004361061003f5760003560e01c806320fe21441461004457806395ffebf514610060578063c4f486251461007c578063ce2bd5d5146100b9575b600080fd5b61005e6004803603810190610059919061060b565b6100e4565b005b61007a6004803603810190610075919061077e565b6101e6565b005b34801561008857600080fd5b506100a3600480360381019061009e919061060b565b61021e565b6040516100b09190610846565b60405180910390f35b3480156100c557600080fd5b506100ce6102ca565b6040516100db9190610846565b60405180910390f35b600080549050811061012b576040517f08c379a0000000000000000000000000000000000000000000000000000000008152600401610122906108b4565b60405180910390fd5b60008190505b60016000805490506101439190610903565b8110156101b25760006001826101599190610937565b8154811061016a5761016961096b565b5b90600052602060002001600082815481106101885761018761096b565b5b90600052602060002001908161019e9190610bd1565b5080806101aa90610cb9565b915050610131565b5060008054806101c5576101c4610d01565b5b6001900381819060005260206000200160006101e19190610564565b905550565b60008190806001815401808255809150506001900390600052602060002001600090919091909150908161021a9190610d30565b5050565b6000818154811061022e57600080fd5b906000526020600020016000915090508054610249906109c9565b80601f0160208091040260200160405190810160405280929190818152602001828054610275906109c9565b80156102c25780601f10610297576101008083540402835291602001916102c2565b820191906000526020600020905b8154815290600101906020018083116102a557829003601f168201915b505050505081565b60608060005b60008054905081101561033b57816102e782610343565b600083815481106102fb576102fa61096b565b5b9060005260206000200160405160200161031793929190610f59565b6040516020818303038152906040529150808061033390610cb9565b9150506102d0565b508091505090565b60606000820361038a576040518060400160405280600181526020017f3000000000000000000000000000000000000000000000000000000000000000815250905061055f565b60006064905060008167ffffffffffffffff8111156103ac576103ab610653565b5b6040519080825280601f01601f1916602001820160405280156103de5781602001600182028036833780820191505090505b50905060005b60008514610470576000600a866103fb9190610fcf565b9050600a8661040a9190611000565b95508060306104199190610937565b60f81b83838061042890610cb9565b94508151811061043b5761043a61096b565b5b60200101907effffffffffffffffffffffffffffffffffffffffffffffffffffffffffffff1916908160001a905350506103e4565b60008167ffffffffffffffff81111561048c5761048b610653565b5b6040519080825280601f01601f1916602001820160405280156104be5781602001600182028036833780820191505090505b50905060005b828110156105565783816001856104db9190610903565b6104e59190610903565b815181106104f6576104f561096b565b5b602001015160f81c60f81b8282815181106105145761051361096b565b5b60200101907effffffffffffffffffffffffffffffffffffffffffffffffffffffffffffff1916908160001a905350808061054e90610cb9565b9150506104c4565b50809450505050505b919050565b508054610570906109c9565b6000825580601f1061058257506105a1565b601f0160209004906000526020600020908101906105a091906105a4565b5b50565b5b808211156105bd5760008160009055506001016105a5565b5090565b6000604051905090565b600080fd5b600080fd5b6000819050919050565b6105e8816105d5565b81146105f357600080fd5b50565b600081359050610605816105df565b92915050565b600060208284031215610621576106206105cb565b5b600061062f848285016105f6565b91505092915050565b600080fd5b600080fd5b6000601f19601f8301169050919050565b7f4e487b7100000000000000000000000000000000000000000000000000000000600052604160045260246000fd5b61068b82610642565b810181811067ffffffffffffffff821117156106aa576106a9610653565b5b80604052505050565b60006106bd6105c1565b90506106c98282610682565b919050565b600067ffffffffffffffff8211156106e9576106e8610653565b5b6106f282610642565b9050602081019050919050565b82818337600083830152505050565b600061072161071c846106ce565b6106b3565b90508281526020810184848401111561073d5761073c61063d565b5b6107488482856106ff565b509392505050565b600082601f83011261076557610764610638565b5b813561077584826020860161070e565b91505092915050565b600060208284031215610794576107936105cb565b5b600082013567ffffffffffffffff8111156107b2576107b16105d0565b5b6107be84828501610750565b91505092915050565b600081519050919050565b600082825260208201905092915050565b60005b838110156108015780820151818401526020810190506107e6565b60008484015250505050565b6000610818826107c7565b61082281856107d2565b93506108328185602086016107e3565b61083b81610642565b840191505092915050565b60006020820190508181036000830152610860818461080d565b905092915050565b7f496e646578206f7574206f6620626f756e647300000000000000000000000000600082015250565b600061089e6013836107d2565b91506108a982610868565b602082019050919050565b600060208201905081810360008301526108cd81610891565b9050919050565b7f4e487b7100000000000000000000000000000000000000000000000000000000600052601160045260246000fd5b600061090e826105d5565b9150610919836105d5565b9250828203905081811115610931576109306108d4565b5b92915050565b6000610942826105d5565b915061094d836105d5565b9250828201905080821115610965576109646108d4565b5b92915050565b7f4e487b7100000000000000000000000000000000000000000000000000000000600052603260045260246000fd5b7f4e487b7100000000000000000000000000000000000000000000000000000000600052602260045260246000fd5b600060028204905060018216806109e157607f821691505b6020821081036109f4576109f361099a565b5b50919050565b600081549050610a09816109c9565b9050919050565b60008190508160005260206000209050919050565b60008190508160005260206000209050919050565b60006020601f8301049050919050565b600082821b905092915050565b600060088302610a877fffffffffffffffffffffffffffffffffffffffffffffffffffffffffffffffff82610a4a565b610a918683610a4a565b95508019841693508086168417925050509392505050565b6000819050919050565b6000610ace610ac9610ac4846105d5565b610aa9565b6105d5565b9050919050565b6000819050919050565b610ae883610ab3565b610afc610af482610ad5565b848454610a57565b825550505050565b600090565b610b11610b04565b610b1c818484610adf565b505050565b5b81811015610b4057610b35600082610b09565b600181019050610b22565b5050565b601f821115610b8557610b5681610a10565b610b5f84610a3a565b81016020851015610b6e578190505b610b82610b7a85610a3a565b830182610b21565b50505b505050565b600082821c905092915050565b6000610ba860001984600802610b8a565b1980831691505092915050565b6000610bc18383610b97565b9150826002028217905092915050565b818103610bdf575050610cb7565b610be8826109fa565b67ffffffffffffffff811115610c0157610c00610653565b5b610c0b82546109c9565b610c16828285610b44565b6000601f831160018114610c455760008415610c33578287015490505b610c3d8582610bb5565b865550610cb0565b601f198416610c5387610a25565b9650610c5e86610a10565b60005b82811015610c8657848901548255600182019150600185019450602081019050610c61565b86831015610ca35784890154610c9f601f891682610b97565b8355505b6001600288020188555050505b5050505050505b565b6000610cc4826105d5565b91507fffffffffffffffffffffffffffffffffffffffffffffffffffffffffffffffff8203610cf657610cf56108d4565b5b600182019050919050565b7f4e487b7100000000000000000000000000000000000000000000000000000000600052603160045260246000fd5b610d39826107c7565b67ffffffffffffffff811115610d5257610d51610653565b5b610d5c82546109c9565b610d67828285610b44565b600060209050601f831160018114610d9a5760008415610d88578287015190505b610d928582610bb5565b865550610dfa565b601f198416610da886610a10565b60005b82811015610dd057848901518255600182019150602085019450602081019050610dab565b86831015610ded5784890151610de9601f891682610b97565b8355505b6001600288020188555050505b505050505050565b600081905092915050565b6000610e18826107c7565b610e228185610e02565b9350610e328185602086016107e3565b80840191505092915050565b7f3a20000000000000000000000000000000000000000000000000000000000000600082015250565b6000610e74600283610e02565b9150610e7f82610e3e565b600282019050919050565b60008154610e97816109c9565b610ea18186610e02565b94506001821660008114610ebc5760018114610ed157610f04565b60ff1983168652811515820286019350610f04565b610eda85610a10565b60005b83811015610efc57815481890152600182019150602081019050610edd565b838801955050505b50505092915050565b7f0a00000000000000000000000000000000000000000000000000000000000000600082015250565b6000610f43600183610e02565b9150610f4e82610f0d565b600182019050919050565b6000610f658286610e0d565b9150610f718285610e0d565b9150610f7c82610e67565b9150610f888284610e8a565b9150610f9382610f36565b9150819050949350505050565b7f4e487b7100000000000000000000000000000000000000000000000000000000600052601260045260246000fd5b6000610fda826105d5565b9150610fe5836105d5565b925082610ff557610ff4610fa0565b5b828206905092915050565b600061100b826105d5565b9150611016836105d5565b92508261102657611025610fa0565b5b82820490509291505056fea26469706673582212207abaf3e344d291684b9092d4423c22929e74f4e7428241f023b1536f2da8d61164736f6c63430008110033",
  "immutableReferences": {},
  "source": "// SPDX-License-Identifier: MIT\npragma solidity >=0.4.22 <0.9.0;\n\ncontract CustomContract {\n  string[] public toDoList;\n  \n  constructor() { }\n\n  function addTodo(string memory todo) payable external {\n    toDoList.push(todo);\n  }\n\n  function getAllTodos() public view returns (string memory) {\n    string memory allTodos;\n    for (uint256 i = 0; i < toDoList.length; i++) {\n      allTodos = string(abi.encodePacked(allTodos, uintToString(i), \": \", toDoList[i], \"\\n\"));\n    }\n    return allTodos;\n  }\n\n  function completeTodo(uint256 index) payable external {\n    require(index < toDoList.length, \"Index out of bounds\");\n    for (uint256 i = index; i < toDoList.length - 1; i++) {\n      toDoList[i] = toDoList[i + 1];\n    }\n    toDoList.pop();\n  }\n\n  // Helper function to convert uint to string\n  function uintToString(uint256 v) internal pure returns (string memory) {\n    if (v == 0) return \"0\";\n    uint256 maxlength = 100;\n    bytes memory reversed = new bytes(maxlength);\n    uint256 i = 0;\n    while (v != 0) {\n      uint256 remainder = v % 10;\n      v = v / 10;\n      reversed[i++] = bytes1(uint8(48 + remainder));\n    }\n    bytes memory s = new bytes(i);\n    for (uint256 j = 0; j < i; j++) {\n      s[j] = reversed[i - 1 - j];\n    }\n    return string(s);\n  }\n}\n",
  "sourcePath": "C:\\Users\\slmFK\\onedrive\\documents\\fhv\\Blockchain\\exercise\\contracts\\CustomContract.sol",
  "compiler": {
    "name": "solc",
    "version": "0.8.17+commit.8df45f5f.Emscripten.clang"
  },
  "schemaVersion": "3.4.16",
  "updatedAt": "2023-12-12T10:23:25.127Z",
  "networkType": "ethereum",
  "devdoc": {
    "kind": "dev",
    "methods": {},
    "version": 1
  },
  "userdoc": {
    "kind": "user",
    "methods": {},
    "version": 1
  }
}